{
  "_format": "hh-sol-artifact-1",
  "contractName": "vehicle",
  "sourceName": "contracts/vehicle.sol",
  "abi": [
    {
      "inputs": [
        {
          "internalType": "string",
          "name": "_vin",
          "type": "string"
        }
      ],
      "name": "getVehicleData",
      "outputs": [
        {
          "internalType": "string",
          "name": "",
          "type": "string"
        },
        {
          "internalType": "uint256",
          "name": "",
          "type": "uint256"
        },
        {
          "internalType": "uint256",
          "name": "",
          "type": "uint256"
        },
        {
          "internalType": "string",
          "name": "",
          "type": "string"
        }
      ],
      "stateMutability": "view",
      "type": "function"
    },
    {
      "inputs": [
        {
          "internalType": "string",
          "name": "_vin",
          "type": "string"
        },
        {
          "internalType": "uint256",
          "name": "_speed",
          "type": "uint256"
        },
        {
          "internalType": "uint256",
          "name": "_fuelLevel",
          "type": "uint256"
        },
        {
          "internalType": "string",
          "name": "_location",
          "type": "string"
        }
      ],
      "name": "updateVehicleData",
      "outputs": [],
      "stateMutability": "nonpayable",
      "type": "function"
    },
    {
      "inputs": [
        {
          "internalType": "string",
          "name": "",
          "type": "string"
        }
      ],
      "name": "vehicles",
      "outputs": [
        {
          "internalType": "string",
          "name": "vin",
          "type": "string"
        },
        {
          "internalType": "uint256",
          "name": "speed",
          "type": "uint256"
        },
        {
          "internalType": "uint256",
          "name": "fuelLevel",
          "type": "uint256"
        },
        {
          "internalType": "string",
          "name": "location",
          "type": "string"
        }
      ],
      "stateMutability": "view",
      "type": "function"
    }
  ],
  "bytecode": "0x608060405234801561001057600080fd5b50610af5806100206000396000f3fe608060405234801561001057600080fd5b50600436106100415760003560e01c80630ae6d5b514610046578063976de5c514610062578063fce2ba7b14610095575b600080fd5b610060600480360381019061005b91906105c5565b6100c8565b005b61007c60048036038101906100779190610664565b610150565b60405161008c949392919061073b565b60405180910390f35b6100af60048036038101906100aa9190610664565b6102a6565b6040516100bf949392919061073b565b60405180910390f35b6040518060800160405280858152602001848152602001838152602001828152506000856040516100f991906107ca565b9081526020016040518091039020600082015181600001908161011c91906109ed565b506020820151816001015560408201518160020155606082015181600301908161014691906109ed565b5090505050505050565b60008180516020810182018051848252602083016020850120818352809550505050505060009150905080600001805461018990610810565b80601f01602080910402602001604051908101604052809291908181526020018280546101b590610810565b80156102025780601f106101d757610100808354040283529160200191610202565b820191906000526020600020905b8154815290600101906020018083116101e557829003601f168201915b50505050509080600101549080600201549080600301805461022390610810565b80601f016020809104026020016040519081016040528092919081815260200182805461024f90610810565b801561029c5780601f106102715761010080835404028352916020019161029c565b820191906000526020600020905b81548152906001019060200180831161027f57829003601f168201915b5050505050905084565b60606000806060600080866040516102be91906107ca565b90815260200160405180910390206040518060800160405290816000820180546102e790610810565b80601f016020809104026020016040519081016040528092919081815260200182805461031390610810565b80156103605780601f1061033557610100808354040283529160200191610360565b820191906000526020600020905b81548152906001019060200180831161034357829003601f168201915b50505050508152602001600182015481526020016002820154815260200160038201805461038d90610810565b80601f01602080910402602001604051908101604052809291908181526020018280546103b990610810565b80156104065780601f106103db57610100808354040283529160200191610406565b820191906000526020600020905b8154815290600101906020018083116103e957829003601f168201915b505050505081525050905080600001518160200151826040015183606001519450945094509450509193509193565b6000604051905090565b600080fd5b600080fd5b600080fd5b600080fd5b6000601f19601f8301169050919050565b7f4e487b7100000000000000000000000000000000000000000000000000000000600052604160045260246000fd5b61049c82610453565b810181811067ffffffffffffffff821117156104bb576104ba610464565b5b80604052505050565b60006104ce610435565b90506104da8282610493565b919050565b600067ffffffffffffffff8211156104fa576104f9610464565b5b61050382610453565b9050602081019050919050565b82818337600083830152505050565b600061053261052d846104df565b6104c4565b90508281526020810184848401111561054e5761054d61044e565b5b610559848285610510565b509392505050565b600082601f83011261057657610575610449565b5b813561058684826020860161051f565b91505092915050565b6000819050919050565b6105a28161058f565b81146105ad57600080fd5b50565b6000813590506105bf81610599565b92915050565b600080600080608085870312156105df576105de61043f565b5b600085013567ffffffffffffffff8111156105fd576105fc610444565b5b61060987828801610561565b945050602061061a878288016105b0565b935050604061062b878288016105b0565b925050606085013567ffffffffffffffff81111561064c5761064b610444565b5b61065887828801610561565b91505092959194509250565b60006020828403121561067a5761067961043f565b5b600082013567ffffffffffffffff81111561069857610697610444565b5b6106a484828501610561565b91505092915050565b600081519050919050565b600082825260208201905092915050565b60005b838110156106e75780820151818401526020810190506106cc565b60008484015250505050565b60006106fe826106ad565b61070881856106b8565b93506107188185602086016106c9565b61072181610453565b840191505092915050565b6107358161058f565b82525050565b6000608082019050818103600083015261075581876106f3565b9050610764602083018661072c565b610771604083018561072c565b818103606083015261078381846106f3565b905095945050505050565b600081905092915050565b60006107a4826106ad565b6107ae818561078e565b93506107be8185602086016106c9565b80840191505092915050565b60006107d68284610799565b915081905092915050565b7f4e487b7100000000000000000000000000000000000000000000000000000000600052602260045260246000fd5b6000600282049050600182168061082857607f821691505b60208210810361083b5761083a6107e1565b5b50919050565b60008190508160005260206000209050919050565b60006020601f8301049050919050565b600082821b905092915050565b6000600883026108a37fffffffffffffffffffffffffffffffffffffffffffffffffffffffffffffffff82610866565b6108ad8683610866565b95508019841693508086168417925050509392505050565b6000819050919050565b60006108ea6108e56108e08461058f565b6108c5565b61058f565b9050919050565b6000819050919050565b610904836108cf565b610918610910826108f1565b848454610873565b825550505050565b600090565b61092d610920565b6109388184846108fb565b505050565b5b8181101561095c57610951600082610925565b60018101905061093e565b5050565b601f8211156109a15761097281610841565b61097b84610856565b8101602085101561098a578190505b61099e61099685610856565b83018261093d565b50505b505050565b600082821c905092915050565b60006109c4600019846008026109a6565b1980831691505092915050565b60006109dd83836109b3565b9150826002028217905092915050565b6109f6826106ad565b67ffffffffffffffff811115610a0f57610a0e610464565b5b610a198254610810565b610a24828285610960565b600060209050601f831160018114610a575760008415610a45578287015190505b610a4f85826109d1565b865550610ab7565b601f198416610a6586610841565b60005b82811015610a8d57848901518255600182019150602085019450602081019050610a68565b86831015610aaa5784890151610aa6601f8916826109b3565b8355505b6001600288020188555050505b50505050505056fea2646970667358221220a6e3badd5de44c9d183dd6236999d1718314aace77b51487d8198ff9617799c764736f6c63430008110033",
  "linkReferences": {},
  "deployedLinkReferences": {}
}