{
  "contracts/vehicle.sol": {
    "vehicle": {
      "abi": [
        {
          "inputs": [
            {
              "internalType": "string",
              "name": "_vin",
              "type": "string"
            }
          ],
          "name": "getVehicleData",
          "outputs": [
            {
              "internalType": "string",
              "name": "",
              "type": "string"
            },
            {
              "internalType": "uint256",
              "name": "",
              "type": "uint256"
            },
            {
              "internalType": "uint256",
              "name": "",
              "type": "uint256"
            },
            {
              "internalType": "string",
              "name": "",
              "type": "string"
            }
          ],
          "stateMutability": "view",
          "type": "function"
        },
        {
          "inputs": [
            {
              "internalType": "string",
              "name": "_vin",
              "type": "string"
            },
            {
              "internalType": "uint256",
              "name": "_speed",
              "type": "uint256"
            },
            {
              "internalType": "uint256",
              "name": "_fuelLevel",
              "type": "uint256"
            },
            {
              "internalType": "string",
              "name": "_location",
              "type": "string"
            }
          ],
          "name": "updateVehicleData",
          "outputs": [],
          "stateMutability": "nonpayable",
          "type": "function"
        },
        {
          "inputs": [
            {
              "internalType": "string",
              "name": "",
              "type": "string"
            }
          ],
          "name": "vehicles",
          "outputs": [
            {
              "internalType": "string",
              "name": "vin",
              "type": "string"
            },
            {
              "internalType": "uint256",
              "name": "speed",
              "type": "uint256"
            },
            {
              "internalType": "uint256",
              "name": "fuelLevel",
              "type": "uint256"
            },
            {
              "internalType": "string",
              "name": "location",
              "type": "string"
            }
          ],
          "stateMutability": "view",
          "type": "function"
        }
      ],
      "evm": {
        "bytecode": {
          "linkReferences": {},
          "object": "608060405234801561001057600080fd5b50610af5806100206000396000f3fe608060405234801561001057600080fd5b50600436106100415760003560e01c80630ae6d5b514610046578063976de5c514610062578063fce2ba7b14610095575b600080fd5b610060600480360381019061005b91906105c5565b6100c8565b005b61007c60048036038101906100779190610664565b610150565b60405161008c949392919061073b565b60405180910390f35b6100af60048036038101906100aa9190610664565b6102a6565b6040516100bf949392919061073b565b60405180910390f35b6040518060800160405280858152602001848152602001838152602001828152506000856040516100f991906107ca565b9081526020016040518091039020600082015181600001908161011c91906109ed565b506020820151816001015560408201518160020155606082015181600301908161014691906109ed565b5090505050505050565b60008180516020810182018051848252602083016020850120818352809550505050505060009150905080600001805461018990610810565b80601f01602080910402602001604051908101604052809291908181526020018280546101b590610810565b80156102025780601f106101d757610100808354040283529160200191610202565b820191906000526020600020905b8154815290600101906020018083116101e557829003601f168201915b50505050509080600101549080600201549080600301805461022390610810565b80601f016020809104026020016040519081016040528092919081815260200182805461024f90610810565b801561029c5780601f106102715761010080835404028352916020019161029c565b820191906000526020600020905b81548152906001019060200180831161027f57829003601f168201915b5050505050905084565b60606000806060600080866040516102be91906107ca565b90815260200160405180910390206040518060800160405290816000820180546102e790610810565b80601f016020809104026020016040519081016040528092919081815260200182805461031390610810565b80156103605780601f1061033557610100808354040283529160200191610360565b820191906000526020600020905b81548152906001019060200180831161034357829003601f168201915b50505050508152602001600182015481526020016002820154815260200160038201805461038d90610810565b80601f01602080910402602001604051908101604052809291908181526020018280546103b990610810565b80156104065780601f106103db57610100808354040283529160200191610406565b820191906000526020600020905b8154815290600101906020018083116103e957829003601f168201915b505050505081525050905080600001518160200151826040015183606001519450945094509450509193509193565b6000604051905090565b600080fd5b600080fd5b600080fd5b600080fd5b6000601f19601f8301169050919050565b7f4e487b7100000000000000000000000000000000000000000000000000000000600052604160045260246000fd5b61049c82610453565b810181811067ffffffffffffffff821117156104bb576104ba610464565b5b80604052505050565b60006104ce610435565b90506104da8282610493565b919050565b600067ffffffffffffffff8211156104fa576104f9610464565b5b61050382610453565b9050602081019050919050565b82818337600083830152505050565b600061053261052d846104df565b6104c4565b90508281526020810184848401111561054e5761054d61044e565b5b610559848285610510565b509392505050565b600082601f83011261057657610575610449565b5b813561058684826020860161051f565b91505092915050565b6000819050919050565b6105a28161058f565b81146105ad57600080fd5b50565b6000813590506105bf81610599565b92915050565b600080600080608085870312156105df576105de61043f565b5b600085013567ffffffffffffffff8111156105fd576105fc610444565b5b61060987828801610561565b945050602061061a878288016105b0565b935050604061062b878288016105b0565b925050606085013567ffffffffffffffff81111561064c5761064b610444565b5b61065887828801610561565b91505092959194509250565b60006020828403121561067a5761067961043f565b5b600082013567ffffffffffffffff81111561069857610697610444565b5b6106a484828501610561565b91505092915050565b600081519050919050565b600082825260208201905092915050565b60005b838110156106e75780820151818401526020810190506106cc565b60008484015250505050565b60006106fe826106ad565b61070881856106b8565b93506107188185602086016106c9565b61072181610453565b840191505092915050565b6107358161058f565b82525050565b6000608082019050818103600083015261075581876106f3565b9050610764602083018661072c565b610771604083018561072c565b818103606083015261078381846106f3565b905095945050505050565b600081905092915050565b60006107a4826106ad565b6107ae818561078e565b93506107be8185602086016106c9565b80840191505092915050565b60006107d68284610799565b915081905092915050565b7f4e487b7100000000000000000000000000000000000000000000000000000000600052602260045260246000fd5b6000600282049050600182168061082857607f821691505b60208210810361083b5761083a6107e1565b5b50919050565b60008190508160005260206000209050919050565b60006020601f8301049050919050565b600082821b905092915050565b6000600883026108a37fffffffffffffffffffffffffffffffffffffffffffffffffffffffffffffffff82610866565b6108ad8683610866565b95508019841693508086168417925050509392505050565b6000819050919050565b60006108ea6108e56108e08461058f565b6108c5565b61058f565b9050919050565b6000819050919050565b610904836108cf565b610918610910826108f1565b848454610873565b825550505050565b600090565b61092d610920565b6109388184846108fb565b505050565b5b8181101561095c57610951600082610925565b60018101905061093e565b5050565b601f8211156109a15761097281610841565b61097b84610856565b8101602085101561098a578190505b61099e61099685610856565b83018261093d565b50505b505050565b600082821c905092915050565b60006109c4600019846008026109a6565b1980831691505092915050565b60006109dd83836109b3565b9150826002028217905092915050565b6109f6826106ad565b67ffffffffffffffff811115610a0f57610a0e610464565b5b610a198254610810565b610a24828285610960565b600060209050601f831160018114610a575760008415610a45578287015190505b610a4f85826109d1565b865550610ab7565b601f198416610a6586610841565b60005b82811015610a8d57848901518255600182019150602085019450602081019050610a68565b86831015610aaa5784890151610aa6601f8916826109b3565b8355505b6001600288020188555050505b50505050505056fea2646970667358221220a6e3badd5de44c9d183dd6236999d1718314aace77b51487d8198ff9617799c764736f6c63430008110033",
          "opcodes": "PUSH1 0x80 PUSH1 0x40 MSTORE CALLVALUE DUP1 ISZERO PUSH2 0x10 JUMPI PUSH1 0x0 DUP1 REVERT JUMPDEST POP PUSH2 0xAF5 DUP1 PUSH2 0x20 PUSH1 0x0 CODECOPY PUSH1 0x0 RETURN INVALID PUSH1 0x80 PUSH1 0x40 MSTORE CALLVALUE DUP1 ISZERO PUSH2 0x10 JUMPI PUSH1 0x0 DUP1 REVERT JUMPDEST POP PUSH1 0x4 CALLDATASIZE LT PUSH2 0x41 JUMPI PUSH1 0x0 CALLDATALOAD PUSH1 0xE0 SHR DUP1 PUSH4 0xAE6D5B5 EQ PUSH2 0x46 JUMPI DUP1 PUSH4 0x976DE5C5 EQ PUSH2 0x62 JUMPI DUP1 PUSH4 0xFCE2BA7B EQ PUSH2 0x95 JUMPI JUMPDEST PUSH1 0x0 DUP1 REVERT JUMPDEST PUSH2 0x60 PUSH1 0x4 DUP1 CALLDATASIZE SUB DUP2 ADD SWAP1 PUSH2 0x5B SWAP2 SWAP1 PUSH2 0x5C5 JUMP JUMPDEST PUSH2 0xC8 JUMP JUMPDEST STOP JUMPDEST PUSH2 0x7C PUSH1 0x4 DUP1 CALLDATASIZE SUB DUP2 ADD SWAP1 PUSH2 0x77 SWAP2 SWAP1 PUSH2 0x664 JUMP JUMPDEST PUSH2 0x150 JUMP JUMPDEST PUSH1 0x40 MLOAD PUSH2 0x8C SWAP5 SWAP4 SWAP3 SWAP2 SWAP1 PUSH2 0x73B JUMP JUMPDEST PUSH1 0x40 MLOAD DUP1 SWAP2 SUB SWAP1 RETURN JUMPDEST PUSH2 0xAF PUSH1 0x4 DUP1 CALLDATASIZE SUB DUP2 ADD SWAP1 PUSH2 0xAA SWAP2 SWAP1 PUSH2 0x664 JUMP JUMPDEST PUSH2 0x2A6 JUMP JUMPDEST PUSH1 0x40 MLOAD PUSH2 0xBF SWAP5 SWAP4 SWAP3 SWAP2 SWAP1 PUSH2 0x73B JUMP JUMPDEST PUSH1 0x40 MLOAD DUP1 SWAP2 SUB SWAP1 RETURN JUMPDEST PUSH1 0x40 MLOAD DUP1 PUSH1 0x80 ADD PUSH1 0x40 MSTORE DUP1 DUP6 DUP2 MSTORE PUSH1 0x20 ADD DUP5 DUP2 MSTORE PUSH1 0x20 ADD DUP4 DUP2 MSTORE PUSH1 0x20 ADD DUP3 DUP2 MSTORE POP PUSH1 0x0 DUP6 PUSH1 0x40 MLOAD PUSH2 0xF9 SWAP2 SWAP1 PUSH2 0x7CA JUMP JUMPDEST SWAP1 DUP2 MSTORE PUSH1 0x20 ADD PUSH1 0x40 MLOAD DUP1 SWAP2 SUB SWAP1 KECCAK256 PUSH1 0x0 DUP3 ADD MLOAD DUP2 PUSH1 0x0 ADD SWAP1 DUP2 PUSH2 0x11C SWAP2 SWAP1 PUSH2 0x9ED JUMP JUMPDEST POP PUSH1 0x20 DUP3 ADD MLOAD DUP2 PUSH1 0x1 ADD SSTORE PUSH1 0x40 DUP3 ADD MLOAD DUP2 PUSH1 0x2 ADD SSTORE PUSH1 0x60 DUP3 ADD MLOAD DUP2 PUSH1 0x3 ADD SWAP1 DUP2 PUSH2 0x146 SWAP2 SWAP1 PUSH2 0x9ED JUMP JUMPDEST POP SWAP1 POP POP POP POP POP POP JUMP JUMPDEST PUSH1 0x0 DUP2 DUP1 MLOAD PUSH1 0x20 DUP2 ADD DUP3 ADD DUP1 MLOAD DUP5 DUP3 MSTORE PUSH1 0x20 DUP4 ADD PUSH1 0x20 DUP6 ADD KECCAK256 DUP2 DUP4 MSTORE DUP1 SWAP6 POP POP POP POP POP POP PUSH1 0x0 SWAP2 POP SWAP1 POP DUP1 PUSH1 0x0 ADD DUP1 SLOAD PUSH2 0x189 SWAP1 PUSH2 0x810 JUMP JUMPDEST DUP1 PUSH1 0x1F ADD PUSH1 0x20 DUP1 SWAP2 DIV MUL PUSH1 0x20 ADD PUSH1 0x40 MLOAD SWAP1 DUP2 ADD PUSH1 0x40 MSTORE DUP1 SWAP3 SWAP2 SWAP1 DUP2 DUP2 MSTORE PUSH1 0x20 ADD DUP3 DUP1 SLOAD PUSH2 0x1B5 SWAP1 PUSH2 0x810 JUMP JUMPDEST DUP1 ISZERO PUSH2 0x202 JUMPI DUP1 PUSH1 0x1F LT PUSH2 0x1D7 JUMPI PUSH2 0x100 DUP1 DUP4 SLOAD DIV MUL DUP4 MSTORE SWAP2 PUSH1 0x20 ADD SWAP2 PUSH2 0x202 JUMP JUMPDEST DUP3 ADD SWAP2 SWAP1 PUSH1 0x0 MSTORE PUSH1 0x20 PUSH1 0x0 KECCAK256 SWAP1 JUMPDEST DUP2 SLOAD DUP2 MSTORE SWAP1 PUSH1 0x1 ADD SWAP1 PUSH1 0x20 ADD DUP1 DUP4 GT PUSH2 0x1E5 JUMPI DUP3 SWAP1 SUB PUSH1 0x1F AND DUP3 ADD SWAP2 JUMPDEST POP POP POP POP POP SWAP1 DUP1 PUSH1 0x1 ADD SLOAD SWAP1 DUP1 PUSH1 0x2 ADD SLOAD SWAP1 DUP1 PUSH1 0x3 ADD DUP1 SLOAD PUSH2 0x223 SWAP1 PUSH2 0x810 JUMP JUMPDEST DUP1 PUSH1 0x1F ADD PUSH1 0x20 DUP1 SWAP2 DIV MUL PUSH1 0x20 ADD PUSH1 0x40 MLOAD SWAP1 DUP2 ADD PUSH1 0x40 MSTORE DUP1 SWAP3 SWAP2 SWAP1 DUP2 DUP2 MSTORE PUSH1 0x20 ADD DUP3 DUP1 SLOAD PUSH2 0x24F SWAP1 PUSH2 0x810 JUMP JUMPDEST DUP1 ISZERO PUSH2 0x29C JUMPI DUP1 PUSH1 0x1F LT PUSH2 0x271 JUMPI PUSH2 0x100 DUP1 DUP4 SLOAD DIV MUL DUP4 MSTORE SWAP2 PUSH1 0x20 ADD SWAP2 PUSH2 0x29C JUMP JUMPDEST DUP3 ADD SWAP2 SWAP1 PUSH1 0x0 MSTORE PUSH1 0x20 PUSH1 0x0 KECCAK256 SWAP1 JUMPDEST DUP2 SLOAD DUP2 MSTORE SWAP1 PUSH1 0x1 ADD SWAP1 PUSH1 0x20 ADD DUP1 DUP4 GT PUSH2 0x27F JUMPI DUP3 SWAP1 SUB PUSH1 0x1F AND DUP3 ADD SWAP2 JUMPDEST POP POP POP POP POP SWAP1 POP DUP5 JUMP JUMPDEST PUSH1 0x60 PUSH1 0x0 DUP1 PUSH1 0x60 PUSH1 0x0 DUP1 DUP7 PUSH1 0x40 MLOAD PUSH2 0x2BE SWAP2 SWAP1 PUSH2 0x7CA JUMP JUMPDEST SWAP1 DUP2 MSTORE PUSH1 0x20 ADD PUSH1 0x40 MLOAD DUP1 SWAP2 SUB SWAP1 KECCAK256 PUSH1 0x40 MLOAD DUP1 PUSH1 0x80 ADD PUSH1 0x40 MSTORE SWAP1 DUP2 PUSH1 0x0 DUP3 ADD DUP1 SLOAD PUSH2 0x2E7 SWAP1 PUSH2 0x810 JUMP JUMPDEST DUP1 PUSH1 0x1F ADD PUSH1 0x20 DUP1 SWAP2 DIV MUL PUSH1 0x20 ADD PUSH1 0x40 MLOAD SWAP1 DUP2 ADD PUSH1 0x40 MSTORE DUP1 SWAP3 SWAP2 SWAP1 DUP2 DUP2 MSTORE PUSH1 0x20 ADD DUP3 DUP1 SLOAD PUSH2 0x313 SWAP1 PUSH2 0x810 JUMP JUMPDEST DUP1 ISZERO PUSH2 0x360 JUMPI DUP1 PUSH1 0x1F LT PUSH2 0x335 JUMPI PUSH2 0x100 DUP1 DUP4 SLOAD DIV MUL DUP4 MSTORE SWAP2 PUSH1 0x20 ADD SWAP2 PUSH2 0x360 JUMP JUMPDEST DUP3 ADD SWAP2 SWAP1 PUSH1 0x0 MSTORE PUSH1 0x20 PUSH1 0x0 KECCAK256 SWAP1 JUMPDEST DUP2 SLOAD DUP2 MSTORE SWAP1 PUSH1 0x1 ADD SWAP1 PUSH1 0x20 ADD DUP1 DUP4 GT PUSH2 0x343 JUMPI DUP3 SWAP1 SUB PUSH1 0x1F AND DUP3 ADD SWAP2 JUMPDEST POP POP POP POP POP DUP2 MSTORE PUSH1 0x20 ADD PUSH1 0x1 DUP3 ADD SLOAD DUP2 MSTORE PUSH1 0x20 ADD PUSH1 0x2 DUP3 ADD SLOAD DUP2 MSTORE PUSH1 0x20 ADD PUSH1 0x3 DUP3 ADD DUP1 SLOAD PUSH2 0x38D SWAP1 PUSH2 0x810 JUMP JUMPDEST DUP1 PUSH1 0x1F ADD PUSH1 0x20 DUP1 SWAP2 DIV MUL PUSH1 0x20 ADD PUSH1 0x40 MLOAD SWAP1 DUP2 ADD PUSH1 0x40 MSTORE DUP1 SWAP3 SWAP2 SWAP1 DUP2 DUP2 MSTORE PUSH1 0x20 ADD DUP3 DUP1 SLOAD PUSH2 0x3B9 SWAP1 PUSH2 0x810 JUMP JUMPDEST DUP1 ISZERO PUSH2 0x406 JUMPI DUP1 PUSH1 0x1F LT PUSH2 0x3DB JUMPI PUSH2 0x100 DUP1 DUP4 SLOAD DIV MUL DUP4 MSTORE SWAP2 PUSH1 0x20 ADD SWAP2 PUSH2 0x406 JUMP JUMPDEST DUP3 ADD SWAP2 SWAP1 PUSH1 0x0 MSTORE PUSH1 0x20 PUSH1 0x0 KECCAK256 SWAP1 JUMPDEST DUP2 SLOAD DUP2 MSTORE SWAP1 PUSH1 0x1 ADD SWAP1 PUSH1 0x20 ADD DUP1 DUP4 GT PUSH2 0x3E9 JUMPI DUP3 SWAP1 SUB PUSH1 0x1F AND DUP3 ADD SWAP2 JUMPDEST POP POP POP POP POP DUP2 MSTORE POP POP SWAP1 POP DUP1 PUSH1 0x0 ADD MLOAD DUP2 PUSH1 0x20 ADD MLOAD DUP3 PUSH1 0x40 ADD MLOAD DUP4 PUSH1 0x60 ADD MLOAD SWAP5 POP SWAP5 POP SWAP5 POP SWAP5 POP POP SWAP2 SWAP4 POP SWAP2 SWAP4 JUMP JUMPDEST PUSH1 0x0 PUSH1 0x40 MLOAD SWAP1 POP SWAP1 JUMP JUMPDEST PUSH1 0x0 DUP1 REVERT JUMPDEST PUSH1 0x0 DUP1 REVERT JUMPDEST PUSH1 0x0 DUP1 REVERT JUMPDEST PUSH1 0x0 DUP1 REVERT JUMPDEST PUSH1 0x0 PUSH1 0x1F NOT PUSH1 0x1F DUP4 ADD AND SWAP1 POP SWAP2 SWAP1 POP JUMP JUMPDEST PUSH32 0x4E487B7100000000000000000000000000000000000000000000000000000000 PUSH1 0x0 MSTORE PUSH1 0x41 PUSH1 0x4 MSTORE PUSH1 0x24 PUSH1 0x0 REVERT JUMPDEST PUSH2 0x49C DUP3 PUSH2 0x453 JUMP JUMPDEST DUP2 ADD DUP2 DUP2 LT PUSH8 0xFFFFFFFFFFFFFFFF DUP3 GT OR ISZERO PUSH2 0x4BB JUMPI PUSH2 0x4BA PUSH2 0x464 JUMP JUMPDEST JUMPDEST DUP1 PUSH1 0x40 MSTORE POP POP POP JUMP JUMPDEST PUSH1 0x0 PUSH2 0x4CE PUSH2 0x435 JUMP JUMPDEST SWAP1 POP PUSH2 0x4DA DUP3 DUP3 PUSH2 0x493 JUMP JUMPDEST SWAP2 SWAP1 POP JUMP JUMPDEST PUSH1 0x0 PUSH8 0xFFFFFFFFFFFFFFFF DUP3 GT ISZERO PUSH2 0x4FA JUMPI PUSH2 0x4F9 PUSH2 0x464 JUMP JUMPDEST JUMPDEST PUSH2 0x503 DUP3 PUSH2 0x453 JUMP JUMPDEST SWAP1 POP PUSH1 0x20 DUP2 ADD SWAP1 POP SWAP2 SWAP1 POP JUMP JUMPDEST DUP3 DUP2 DUP4 CALLDATACOPY PUSH1 0x0 DUP4 DUP4 ADD MSTORE POP POP POP JUMP JUMPDEST PUSH1 0x0 PUSH2 0x532 PUSH2 0x52D DUP5 PUSH2 0x4DF JUMP JUMPDEST PUSH2 0x4C4 JUMP JUMPDEST SWAP1 POP DUP3 DUP2 MSTORE PUSH1 0x20 DUP2 ADD DUP5 DUP5 DUP5 ADD GT ISZERO PUSH2 0x54E JUMPI PUSH2 0x54D PUSH2 0x44E JUMP JUMPDEST JUMPDEST PUSH2 0x559 DUP5 DUP3 DUP6 PUSH2 0x510 JUMP JUMPDEST POP SWAP4 SWAP3 POP POP POP JUMP JUMPDEST PUSH1 0x0 DUP3 PUSH1 0x1F DUP4 ADD SLT PUSH2 0x576 JUMPI PUSH2 0x575 PUSH2 0x449 JUMP JUMPDEST JUMPDEST DUP2 CALLDATALOAD PUSH2 0x586 DUP5 DUP3 PUSH1 0x20 DUP7 ADD PUSH2 0x51F JUMP JUMPDEST SWAP2 POP POP SWAP3 SWAP2 POP POP JUMP JUMPDEST PUSH1 0x0 DUP2 SWAP1 POP SWAP2 SWAP1 POP JUMP JUMPDEST PUSH2 0x5A2 DUP2 PUSH2 0x58F JUMP JUMPDEST DUP2 EQ PUSH2 0x5AD JUMPI PUSH1 0x0 DUP1 REVERT JUMPDEST POP JUMP JUMPDEST PUSH1 0x0 DUP2 CALLDATALOAD SWAP1 POP PUSH2 0x5BF DUP2 PUSH2 0x599 JUMP JUMPDEST SWAP3 SWAP2 POP POP JUMP JUMPDEST PUSH1 0x0 DUP1 PUSH1 0x0 DUP1 PUSH1 0x80 DUP6 DUP8 SUB SLT ISZERO PUSH2 0x5DF JUMPI PUSH2 0x5DE PUSH2 0x43F JUMP JUMPDEST JUMPDEST PUSH1 0x0 DUP6 ADD CALLDATALOAD PUSH8 0xFFFFFFFFFFFFFFFF DUP2 GT ISZERO PUSH2 0x5FD JUMPI PUSH2 0x5FC PUSH2 0x444 JUMP JUMPDEST JUMPDEST PUSH2 0x609 DUP8 DUP3 DUP9 ADD PUSH2 0x561 JUMP JUMPDEST SWAP5 POP POP PUSH1 0x20 PUSH2 0x61A DUP8 DUP3 DUP9 ADD PUSH2 0x5B0 JUMP JUMPDEST SWAP4 POP POP PUSH1 0x40 PUSH2 0x62B DUP8 DUP3 DUP9 ADD PUSH2 0x5B0 JUMP JUMPDEST SWAP3 POP POP PUSH1 0x60 DUP6 ADD CALLDATALOAD PUSH8 0xFFFFFFFFFFFFFFFF DUP2 GT ISZERO PUSH2 0x64C JUMPI PUSH2 0x64B PUSH2 0x444 JUMP JUMPDEST JUMPDEST PUSH2 0x658 DUP8 DUP3 DUP9 ADD PUSH2 0x561 JUMP JUMPDEST SWAP2 POP POP SWAP3 SWAP6 SWAP2 SWAP5 POP SWAP3 POP JUMP JUMPDEST PUSH1 0x0 PUSH1 0x20 DUP3 DUP5 SUB SLT ISZERO PUSH2 0x67A JUMPI PUSH2 0x679 PUSH2 0x43F JUMP JUMPDEST JUMPDEST PUSH1 0x0 DUP3 ADD CALLDATALOAD PUSH8 0xFFFFFFFFFFFFFFFF DUP2 GT ISZERO PUSH2 0x698 JUMPI PUSH2 0x697 PUSH2 0x444 JUMP JUMPDEST JUMPDEST PUSH2 0x6A4 DUP5 DUP3 DUP6 ADD PUSH2 0x561 JUMP JUMPDEST SWAP2 POP POP SWAP3 SWAP2 POP POP JUMP JUMPDEST PUSH1 0x0 DUP2 MLOAD SWAP1 POP SWAP2 SWAP1 POP JUMP JUMPDEST PUSH1 0x0 DUP3 DUP3 MSTORE PUSH1 0x20 DUP3 ADD SWAP1 POP SWAP3 SWAP2 POP POP JUMP JUMPDEST PUSH1 0x0 JUMPDEST DUP4 DUP2 LT ISZERO PUSH2 0x6E7 JUMPI DUP1 DUP3 ADD MLOAD DUP2 DUP5 ADD MSTORE PUSH1 0x20 DUP2 ADD SWAP1 POP PUSH2 0x6CC JUMP JUMPDEST PUSH1 0x0 DUP5 DUP5 ADD MSTORE POP POP POP POP JUMP JUMPDEST PUSH1 0x0 PUSH2 0x6FE DUP3 PUSH2 0x6AD JUMP JUMPDEST PUSH2 0x708 DUP2 DUP6 PUSH2 0x6B8 JUMP JUMPDEST SWAP4 POP PUSH2 0x718 DUP2 DUP6 PUSH1 0x20 DUP7 ADD PUSH2 0x6C9 JUMP JUMPDEST PUSH2 0x721 DUP2 PUSH2 0x453 JUMP JUMPDEST DUP5 ADD SWAP2 POP POP SWAP3 SWAP2 POP POP JUMP JUMPDEST PUSH2 0x735 DUP2 PUSH2 0x58F JUMP JUMPDEST DUP3 MSTORE POP POP JUMP JUMPDEST PUSH1 0x0 PUSH1 0x80 DUP3 ADD SWAP1 POP DUP2 DUP2 SUB PUSH1 0x0 DUP4 ADD MSTORE PUSH2 0x755 DUP2 DUP8 PUSH2 0x6F3 JUMP JUMPDEST SWAP1 POP PUSH2 0x764 PUSH1 0x20 DUP4 ADD DUP7 PUSH2 0x72C JUMP JUMPDEST PUSH2 0x771 PUSH1 0x40 DUP4 ADD DUP6 PUSH2 0x72C JUMP JUMPDEST DUP2 DUP2 SUB PUSH1 0x60 DUP4 ADD MSTORE PUSH2 0x783 DUP2 DUP5 PUSH2 0x6F3 JUMP JUMPDEST SWAP1 POP SWAP6 SWAP5 POP POP POP POP POP JUMP JUMPDEST PUSH1 0x0 DUP2 SWAP1 POP SWAP3 SWAP2 POP POP JUMP JUMPDEST PUSH1 0x0 PUSH2 0x7A4 DUP3 PUSH2 0x6AD JUMP JUMPDEST PUSH2 0x7AE DUP2 DUP6 PUSH2 0x78E JUMP JUMPDEST SWAP4 POP PUSH2 0x7BE DUP2 DUP6 PUSH1 0x20 DUP7 ADD PUSH2 0x6C9 JUMP JUMPDEST DUP1 DUP5 ADD SWAP2 POP POP SWAP3 SWAP2 POP POP JUMP JUMPDEST PUSH1 0x0 PUSH2 0x7D6 DUP3 DUP5 PUSH2 0x799 JUMP JUMPDEST SWAP2 POP DUP2 SWAP1 POP SWAP3 SWAP2 POP POP JUMP JUMPDEST PUSH32 0x4E487B7100000000000000000000000000000000000000000000000000000000 PUSH1 0x0 MSTORE PUSH1 0x22 PUSH1 0x4 MSTORE PUSH1 0x24 PUSH1 0x0 REVERT JUMPDEST PUSH1 0x0 PUSH1 0x2 DUP3 DIV SWAP1 POP PUSH1 0x1 DUP3 AND DUP1 PUSH2 0x828 JUMPI PUSH1 0x7F DUP3 AND SWAP2 POP JUMPDEST PUSH1 0x20 DUP3 LT DUP2 SUB PUSH2 0x83B JUMPI PUSH2 0x83A PUSH2 0x7E1 JUMP JUMPDEST JUMPDEST POP SWAP2 SWAP1 POP JUMP JUMPDEST PUSH1 0x0 DUP2 SWAP1 POP DUP2 PUSH1 0x0 MSTORE PUSH1 0x20 PUSH1 0x0 KECCAK256 SWAP1 POP SWAP2 SWAP1 POP JUMP JUMPDEST PUSH1 0x0 PUSH1 0x20 PUSH1 0x1F DUP4 ADD DIV SWAP1 POP SWAP2 SWAP1 POP JUMP JUMPDEST PUSH1 0x0 DUP3 DUP3 SHL SWAP1 POP SWAP3 SWAP2 POP POP JUMP JUMPDEST PUSH1 0x0 PUSH1 0x8 DUP4 MUL PUSH2 0x8A3 PUSH32 0xFFFFFFFFFFFFFFFFFFFFFFFFFFFFFFFFFFFFFFFFFFFFFFFFFFFFFFFFFFFFFFFF DUP3 PUSH2 0x866 JUMP JUMPDEST PUSH2 0x8AD DUP7 DUP4 PUSH2 0x866 JUMP JUMPDEST SWAP6 POP DUP1 NOT DUP5 AND SWAP4 POP DUP1 DUP7 AND DUP5 OR SWAP3 POP POP POP SWAP4 SWAP3 POP POP POP JUMP JUMPDEST PUSH1 0x0 DUP2 SWAP1 POP SWAP2 SWAP1 POP JUMP JUMPDEST PUSH1 0x0 PUSH2 0x8EA PUSH2 0x8E5 PUSH2 0x8E0 DUP5 PUSH2 0x58F JUMP JUMPDEST PUSH2 0x8C5 JUMP JUMPDEST PUSH2 0x58F JUMP JUMPDEST SWAP1 POP SWAP2 SWAP1 POP JUMP JUMPDEST PUSH1 0x0 DUP2 SWAP1 POP SWAP2 SWAP1 POP JUMP JUMPDEST PUSH2 0x904 DUP4 PUSH2 0x8CF JUMP JUMPDEST PUSH2 0x918 PUSH2 0x910 DUP3 PUSH2 0x8F1 JUMP JUMPDEST DUP5 DUP5 SLOAD PUSH2 0x873 JUMP JUMPDEST DUP3 SSTORE POP POP POP POP JUMP JUMPDEST PUSH1 0x0 SWAP1 JUMP JUMPDEST PUSH2 0x92D PUSH2 0x920 JUMP JUMPDEST PUSH2 0x938 DUP2 DUP5 DUP5 PUSH2 0x8FB JUMP JUMPDEST POP POP POP JUMP JUMPDEST JUMPDEST DUP2 DUP2 LT ISZERO PUSH2 0x95C JUMPI PUSH2 0x951 PUSH1 0x0 DUP3 PUSH2 0x925 JUMP JUMPDEST PUSH1 0x1 DUP2 ADD SWAP1 POP PUSH2 0x93E JUMP JUMPDEST POP POP JUMP JUMPDEST PUSH1 0x1F DUP3 GT ISZERO PUSH2 0x9A1 JUMPI PUSH2 0x972 DUP2 PUSH2 0x841 JUMP JUMPDEST PUSH2 0x97B DUP5 PUSH2 0x856 JUMP JUMPDEST DUP2 ADD PUSH1 0x20 DUP6 LT ISZERO PUSH2 0x98A JUMPI DUP2 SWAP1 POP JUMPDEST PUSH2 0x99E PUSH2 0x996 DUP6 PUSH2 0x856 JUMP JUMPDEST DUP4 ADD DUP3 PUSH2 0x93D JUMP JUMPDEST POP POP JUMPDEST POP POP POP JUMP JUMPDEST PUSH1 0x0 DUP3 DUP3 SHR SWAP1 POP SWAP3 SWAP2 POP POP JUMP JUMPDEST PUSH1 0x0 PUSH2 0x9C4 PUSH1 0x0 NOT DUP5 PUSH1 0x8 MUL PUSH2 0x9A6 JUMP JUMPDEST NOT DUP1 DUP4 AND SWAP2 POP POP SWAP3 SWAP2 POP POP JUMP JUMPDEST PUSH1 0x0 PUSH2 0x9DD DUP4 DUP4 PUSH2 0x9B3 JUMP JUMPDEST SWAP2 POP DUP3 PUSH1 0x2 MUL DUP3 OR SWAP1 POP SWAP3 SWAP2 POP POP JUMP JUMPDEST PUSH2 0x9F6 DUP3 PUSH2 0x6AD JUMP JUMPDEST PUSH8 0xFFFFFFFFFFFFFFFF DUP2 GT ISZERO PUSH2 0xA0F JUMPI PUSH2 0xA0E PUSH2 0x464 JUMP JUMPDEST JUMPDEST PUSH2 0xA19 DUP3 SLOAD PUSH2 0x810 JUMP JUMPDEST PUSH2 0xA24 DUP3 DUP3 DUP6 PUSH2 0x960 JUMP JUMPDEST PUSH1 0x0 PUSH1 0x20 SWAP1 POP PUSH1 0x1F DUP4 GT PUSH1 0x1 DUP2 EQ PUSH2 0xA57 JUMPI PUSH1 0x0 DUP5 ISZERO PUSH2 0xA45 JUMPI DUP3 DUP8 ADD MLOAD SWAP1 POP JUMPDEST PUSH2 0xA4F DUP6 DUP3 PUSH2 0x9D1 JUMP JUMPDEST DUP7 SSTORE POP PUSH2 0xAB7 JUMP JUMPDEST PUSH1 0x1F NOT DUP5 AND PUSH2 0xA65 DUP7 PUSH2 0x841 JUMP JUMPDEST PUSH1 0x0 JUMPDEST DUP3 DUP2 LT ISZERO PUSH2 0xA8D JUMPI DUP5 DUP10 ADD MLOAD DUP3 SSTORE PUSH1 0x1 DUP3 ADD SWAP2 POP PUSH1 0x20 DUP6 ADD SWAP5 POP PUSH1 0x20 DUP2 ADD SWAP1 POP PUSH2 0xA68 JUMP JUMPDEST DUP7 DUP4 LT ISZERO PUSH2 0xAAA JUMPI DUP5 DUP10 ADD MLOAD PUSH2 0xAA6 PUSH1 0x1F DUP10 AND DUP3 PUSH2 0x9B3 JUMP JUMPDEST DUP4 SSTORE POP JUMPDEST PUSH1 0x1 PUSH1 0x2 DUP9 MUL ADD DUP9 SSTORE POP POP POP JUMPDEST POP POP POP POP POP POP JUMP INVALID LOG2 PUSH5 0x6970667358 0x22 SLT KECCAK256 0xA6 0xE3 0xBA 0xDD 0x5D 0xE4 0x4C SWAP14 XOR RETURNDATASIZE 0xD6 0x23 PUSH10 0x99D1718314AACE77B514 DUP8 0xD8 NOT DUP16 0xF9 PUSH2 0x7799 0xC7 PUSH5 0x736F6C6343 STOP ADDMOD GT STOP CALLER "
        },
        "methodIdentifiers": {
          "getVehicleData(string)": "fce2ba7b",
          "updateVehicleData(string,uint256,uint256,string)": "0ae6d5b5",
          "vehicles(string)": "976de5c5"
        }
      }
    }
  }
}